{
  "contractName": "Election",
  "abi": [
    {
      "constant": true,
      "inputs": [],
      "name": "candidatesCount",
      "outputs": [
        {
          "name": "",
          "type": "uint256"
        }
      ],
      "payable": false,
      "stateMutability": "view",
      "type": "function"
    },
    {
      "constant": true,
      "inputs": [
        {
          "name": "",
          "type": "uint256"
        }
      ],
      "name": "candidates",
      "outputs": [
        {
          "name": "id",
          "type": "uint256"
        },
        {
          "name": "name",
          "type": "string"
        },
        {
          "name": "voteCount",
          "type": "uint256"
        }
      ],
      "payable": false,
      "stateMutability": "view",
      "type": "function"
    },
    {
      "constant": true,
      "inputs": [],
      "name": "votersCount",
      "outputs": [
        {
          "name": "",
          "type": "uint256"
        }
      ],
      "payable": false,
      "stateMutability": "view",
      "type": "function"
    },
    {
      "constant": true,
      "inputs": [
        {
          "name": "",
          "type": "address"
        }
      ],
      "name": "voters",
      "outputs": [
        {
          "name": "",
          "type": "bool"
        }
      ],
      "payable": false,
      "stateMutability": "view",
      "type": "function"
    },
    {
      "inputs": [],
      "payable": false,
      "stateMutability": "nonpayable",
      "type": "constructor"
    },
    {
      "anonymous": false,
      "inputs": [
        {
          "indexed": true,
          "name": "_candidateId",
          "type": "uint256"
        }
      ],
      "name": "votedEvent",
      "type": "event"
    },
    {
      "constant": false,
      "inputs": [
        {
          "name": "_name",
          "type": "string"
        }
      ],
      "name": "addCandidate",
      "outputs": [],
      "payable": false,
      "stateMutability": "nonpayable",
      "type": "function"
    },
    {
      "constant": false,
      "inputs": [
        {
          "name": "_candidateId",
          "type": "uint256"
        }
      ],
      "name": "vote",
      "outputs": [],
      "payable": false,
      "stateMutability": "nonpayable",
      "type": "function"
    }
  ],
  "bytecode": "0x60806040523480156200001157600080fd5b50620000616040805190810160405280600b81526020017f43616e6469646174652031000000000000000000000000000000000000000000815250620004b9640100000000026401000000009004565b620000b06040805190810160405280600b81526020017f43616e6469646174652032000000000000000000000000000000000000000000815250620004b9640100000000026401000000009004565b620000ff6040805190810160405280600b81526020017f43616e6469646174652033000000000000000000000000000000000000000000815250620004b9640100000000026401000000009004565b6200014e6040805190810160405280600b81526020017f43616e6469646174652034000000000000000000000000000000000000000000815250620004b9640100000000026401000000009004565b6200019d6040805190810160405280600b81526020017f43616e6469646174652035000000000000000000000000000000000000000000815250620004b9640100000000026401000000009004565b620001ec6040805190810160405280600b81526020017f43616e6469646174652036000000000000000000000000000000000000000000815250620004b9640100000000026401000000009004565b6200023b6040805190810160405280600b81526020017f43616e6469646174652037000000000000000000000000000000000000000000815250620004b9640100000000026401000000009004565b6200028a6040805190810160405280600b81526020017f43616e6469646174652038000000000000000000000000000000000000000000815250620004b9640100000000026401000000009004565b620002d96040805190810160405280600b81526020017f43616e6469646174652039000000000000000000000000000000000000000000815250620004b9640100000000026401000000009004565b620003286040805190810160405280600c81526020017f43616e6469646174652031300000000000000000000000000000000000000000815250620004b9640100000000026401000000009004565b620003776040805190810160405280600c81526020017f43616e6469646174652031310000000000000000000000000000000000000000815250620004b9640100000000026401000000009004565b620003c66040805190810160405280600c81526020017f43616e6469646174652031320000000000000000000000000000000000000000815250620004b9640100000000026401000000009004565b620004156040805190810160405280600c81526020017f43616e6469646174652031330000000000000000000000000000000000000000815250620004b9640100000000026401000000009004565b620004646040805190810160405280600c81526020017f43616e6469646174652031340000000000000000000000000000000000000000815250620004b9640100000000026401000000009004565b620004b36040805190810160405280600c81526020017f43616e6469646174652031350000000000000000000000000000000000000000815250620004b9640100000000026401000000009004565b620005e7565b600260008154809291906001019190505550606060405190810160405280600254815260200182815260200160008152506001600060025481526020019081526020016000206000820151816000015560208201518160010190805190602001906200052792919062000538565b506040820151816002015590505050565b828054600181600116156101000203166002900490600052602060002090601f016020900481019282601f106200057b57805160ff1916838001178555620005ac565b82800160010185558215620005ac579182015b82811115620005ab5782518255916020019190600101906200058e565b5b509050620005bb9190620005bf565b5090565b620005e491905b80821115620005e0576000816000905550600101620005c6565b5090565b90565b61074380620005f76000396000f3fe608060405260043610610078576000357c0100000000000000000000000000000000000000000000000000000000900463ffffffff1680630121b93f1461007d5780632d35a8a2146100b85780633477ee2e146100e3578063462e91ec146101a557806398c079381461026d578063a3ec138d14610298575b600080fd5b34801561008957600080fd5b506100b6600480360360208110156100a057600080fd5b8101908080359060200190929190505050610301565b005b3480156100c457600080fd5b506100cd610507565b6040518082815260200191505060405180910390f35b3480156100ef57600080fd5b5061011c6004803603602081101561010657600080fd5b810190808035906020019092919050505061050d565b6040518084815260200180602001838152602001828103825284818151815260200191508051906020019080838360005b8381101561016857808201518184015260208101905061014d565b50505050905090810190601f1680156101955780820380516001836020036101000a031916815260200191505b5094505050505060405180910390f35b3480156101b157600080fd5b5061026b600480360360208110156101c857600080fd5b81019080803590602001906401000000008111156101e557600080fd5b8201836020820111156101f757600080fd5b8035906020019184600183028401116401000000008311171561021957600080fd5b91908080601f016020809104026020016040519081016040528093929190818152602001838380828437600081840152601f19601f8201169050808301925050505050505091929192905050506105cf565b005b34801561027957600080fd5b5061028261064c565b6040518082815260200191505060405180910390f35b3480156102a457600080fd5b506102e7600480360360208110156102bb57600080fd5b81019080803573ffffffffffffffffffffffffffffffffffffffff169060200190929190505050610652565b604051808215151515815260200191505060405180910390f35b6000803373ffffffffffffffffffffffffffffffffffffffff1673ffffffffffffffffffffffffffffffffffffffff16815260200190815260200160002060009054906101000a900460ff161515156103c2576040517f08c379a00000000000000000000000000000000000000000000000000000000081526004018080602001828103825260168152602001807f796f75206861766520616c726561647920766f7465640000000000000000000081525060200191505060405180910390fd5b6000811180156103d457506002548111155b1515610448576040517f08c379a00000000000000000000000000000000000000000000000000000000081526004018080602001828103825260178152602001807f63616e64696461746520646f77736e277420657869737400000000000000000081525060200191505060405180910390fd5b60016000803373ffffffffffffffffffffffffffffffffffffffff1673ffffffffffffffffffffffffffffffffffffffff16815260200190815260200160002060006101000a81548160ff0219169083151502179055506003600081548092919060010191905055506001600082815260200190815260200160002060020160008154809291906001019190505550807ffff3c900d938d21d0990d786e819f29b8d05c1ef587b462b939609625b684b1660405160405180910390a250565b60025481565b6001602052806000526040600020600091509050806000015490806001018054600181600116156101000203166002900480601f0160208091040260200160405190810160405280929190818152602001828054600181600116156101000203166002900480156105bf5780601f10610594576101008083540402835291602001916105bf565b820191906000526020600020905b8154815290600101906020018083116105a257829003601f168201915b5050505050908060020154905083565b6002600081548092919060010191905055506060604051908101604052806002548152602001828152602001600081525060016000600254815260200190815260200160002060008201518160000155602082015181600101908051906020019061063b929190610672565b506040820151816002015590505050565b60035481565b60006020528060005260406000206000915054906101000a900460ff1681565b828054600181600116156101000203166002900490600052602060002090601f016020900481019282601f106106b357805160ff19168380011785556106e1565b828001600101855582156106e1579182015b828111156106e05782518255916020019190600101906106c5565b5b5090506106ee91906106f2565b5090565b61071491905b808211156107105760008160009055506001016106f8565b5090565b9056fea165627a7a723058204f931ed8b308453c3bc5fb67d646353452116ea33ea45147583475073c4def2b0029",
  "source": "pragma solidity ^0.5.0;\n\ncontract Election {\n    // Model a Candidate\n    struct Candidate {\n        uint id;\n        string name;\n        uint voteCount;\n    }\n\n    // Store accounts that have voted\n    mapping(address => bool) public voters;\n    // Store Candidates\n    // Fetch Candidate\n    mapping(uint => Candidate) public candidates;\n    // Store Candidates Count\n    uint public candidatesCount;\n    uint public votersCount;\n\n    // voted event\n    event votedEvent (\n        uint indexed _candidateId\n    );\n\n    constructor () public {\n        addCandidate(\"Candidate 1\");\n        addCandidate(\"Candidate 2\");\n        addCandidate(\"Candidate 3\");\n        addCandidate(\"Candidate 4\");\n        addCandidate(\"Candidate 5\");\n        addCandidate(\"Candidate 6\");\n        addCandidate(\"Candidate 7\");\n        addCandidate(\"Candidate 8\");\n        addCandidate(\"Candidate 9\");\n        addCandidate(\"Candidate 10\");\n        addCandidate(\"Candidate 11\");\n        addCandidate(\"Candidate 12\");\n        addCandidate(\"Candidate 13\");\n        addCandidate(\"Candidate 14\");\n        addCandidate(\"Candidate 15\");\n    }\n\n    function addCandidate (string memory _name) public {\n        candidatesCount ++;\n        candidates[candidatesCount] = Candidate(candidatesCount, _name, 0);\n    }\n\n    function vote (uint _candidateId) public {\n        // require that they haven't voted before\n        require(!voters[msg.sender],\"you have already voted\");\n\n        // require a valid candidate\n        require(_candidateId > 0 && _candidateId <= candidatesCount,\"candidate dowsn't exist\");\n\n        // record that voter has voted\n        voters[msg.sender] = true;\n        votersCount++;\n\n        // update candidate vote Count\n        candidates[_candidateId].voteCount ++;\n\n        // trigger voted event\n        emit votedEvent(_candidateId);\n    }\n}",
  "sourcePath": "/home/kapoor13/Desktop/lasttry/contracts/Election.sol",
  "compiler": {
    "name": "solc",
    "version": "0.5.0+commit.1d4f565a.Emscripten.clang"
  },
  "schemaVersion": "3.0.12",
  "updatedAt": "2019-08-21T19:13:08.327Z",
  "devdoc": {
    "methods": {}
  },
  "userdoc": {
    "methods": {}
  }
}